:10000000759840758780758920758DFF7588407556
:10001000A89075995580127BC87CC8DCFEDBFADAA3
:02002000F622C6
:10002300C29975995532117D900121118AC2907A36
:1000330001111711AB7A1E11173350F3C2927A1EB6
:100043001117900125118A7A01111711AB3350F75B
:100053007590FB7A1411177590FF2095147590F71E
:1000630090012C118A7A01111711AB3350F7759057
:10007300FB7A1411177590F080D9C2B57A03111762
:10008300D2B57A03111722E493FBC2B3311CC2B475
:10009300311C742211C97C01EC0C9311C9DBF9D218
:1000A300B4311CD2B3311C22C2B3311CC2B4311CD3
:1000B300742311C964FF13929211EF310BD2B4313F
:1000C3001CD2B3311C2279083392B3311CD2B43120
:1000D3001CC2B4311CD9F1D2B3311CD2B4311CA22D
:1000E300B3E433C2B4311CC2B3311C227908D2B396
:1000F300311CD2B4311CA2B333C2B4311CD9F3C204
:10010300B3311C22C2B38002D2B3311CD2B4311C2E
:10011300C2B4311CC2B3311C22AAC8DAFE220301C5
:0C012300000506120002017A1202210CF5
:00000001FF
