:10000000759840758780758920758DFF7588407556
:07001000A8907599558029A5
:10002300C29975995532C003C0047BC87CC8DCFEF5
:09003300DBFADAF6D004D0032256
:1000400011657A0511297590FFE430950530970206
:10005000800411C5800720B70411E680007A0511DD
:1000600029C29380DDC002C2B57A031129D2B57AC4
:10007000031129C29090024C3132E420B70304F5F9
:1000800062F55F3154D290C291900252312BD291DD
:10009000C292E55F7016900264312B90026B312B97
:1000A000900272312B90025B312B801490028D31C3
:1000B0002B900294312B90029B312B90027C312BA0
:1000C000D292D00222C292900261E55F6003900258
:1000D0008331323095036362083154900259312BD9
:1000E00030E0F8D29222C000C002900279E55F6051
:1000F0000390028A312B78717A05120229C0E0DA66
:10010000F97A05D0E012010FDAF9D002D00022C04E
:10011000E0C002540F640F44E0F5907A0D11297588
:1001200090FF7A071129D002D0E022120132120189
:100130005422C000C002C003C0E07860E493F654CB
:100140000FFB7A000AEA9308F6DBF9D0E0D003D07F
:1001500002D00022C002C005E560C4540FFD316E1C
:100160007A011129319330E7F7D005D00222C0037C
:100170007860E6540FFBC2B35120C2B45120742200
:1001800031C508E631C5DBFAD2B45120D2B35120D3
:10019000D00322C000C2B35120C2B4512074233115
:1001A000C531EF30E710C0E07870ED6009510B31D8
:1001B000EFF6081D80F4510FD2B45120D2B3512074
:1001C000D0E0D00022C00179083392B35120D2B4DC
:1001D0005120C2B45120D9F1D2B35120D2B4512010
:1001E000A2B3E433C2B45120C2B35120D00122C023
:1001F000017908D2B35120D2B45120A2B333C2B492
:100200005120D9F3C2B35120D00122C2B38002D20F
:10021000B35120D2B45120C2B45120C2B3512022D4
:10022000C002AAC8DAFED00222E675F00A84F608F7
:10023000E654F045F0C475F00A84C4C6C454F045D1
:10024000F0C475F00A8446F6E5F0182203010005B3
:10025000811006120002017A120114052000222EDC
:100260000002210C061200140019000612001402EC
:10027000000506120014040005722200064000006A
:1002800095000006410C00000000724200061200BA
:1002900034000095061200340106AE061200340246
:0602A0000001009506AE0E
:00000001FF
