:10000000759840758780758920758DFF7588407556
:07001000A8907599558029A5
:10002300C29975995532C003C0047BC87CC8DCFEF5
:09003300DBFADAF6D004D0032256
:10004000115F7A0511297590FF20950411828007B0
:1000500020B704118C80007A051129C29380E3C077
:1000600002C2B57A031129D2B57A031129C2909040
:1000700001C911F6D290C2919001CF11F6D291D060
:100080000222C2929001D611F6D29222C291900120
:10009000CD11F6E570C41200DAC41200DAE571C4BD
:1000A0001200DAC41200DAE572C41200DAC41200D7
:1000B000DAE573C41200DAC41200DAE574C412007F
:1000C000DAC41200DAE575C41200DAC41200DAE507
:1000D00076C41200DAC41200DA22C0E0C002540F63
:1000E000640F44E0F5907A0D11297590FF7A07119D
:1000F00029D002D0E022C002C005E493C4540FFD11
:1001000031107A011129313B30E7F7D005D00222B6
:10011000C003C004E493540FFBC2B331C0C2B43176
:10012000C0742231657C01EC0C933165DBF9D2B4EB
:1001300031C0D2B331C0D004D00322C000C2B33129
:10014000C0C2B431C07423316578700D318FF608A8
:10015000DD0431AB80F631AFD2B431C0D2B331C09F
:10016000E570D00022C00179083392B331C0D2B417
:1001700031C0C2B431C0D9F1D2B331C0D2B431C070
:10018000A2B3E433C2B431C0C2B331C0D00122C083
:10019000017908D2B331C0D2B431C0A2B333C2B4F2
:1001A00031C0D9F3C2B331C0D00122C2B38002D270
:1001B000B331C0D2B431C0C2B431C0C2B331C02235
:1001C000C002AAC8DAFED00222030100058110068F
:0C01D000120002017A1202210C722201BE
:00000001FF
