:10000000759840758780758920758DFF7588407556
:07001000A8907599558029A5
:10002300C29975995532C003C0047BC87CC8DCFEF5
:09003300DBFADAF6D004D0032256
:1000400011667A0511297590FFE4309506F4309712
:1000500002800411A1800720B70411B880007A053E
:100060001129C29380DCC002C2B57A031129D2B52E
:100070007A031129C2909001F411F6D290C29190A6
:1000800001FA11F6D291C29290020111F690020883
:1000900011F690020F11F690021811F6D292D002CA
:1000A00022C29290021D600390022011F690021667
:1000B00011F630E0F8D29222C000C0029002231163
:1000C000F678717A051201D1C0E0DAF97A05D0E04C
:1000D0001200DADAF9D002D00022C0E0C002540FD8
:1000E000640F44E0F5907A0D11297590FF7A07119D
:1000F00029D002D0E022C002C005E493C4540FFD11
:1001000031107A011129313B30E7F7D005D00222B6
:10011000C003C004E493540FFBC2B331C8C2B4316E
:10012000C87422316D7C01EC0C93316DDBF9D2B4D3
:1001300031C8D2B331C8D004D00322C000C2B33119
:10014000C8C2B431C87423316D319730E710C0E0B4
:100150007870ED600931B33197F6081D80F431B73E
:10016000D2B431C8D2B331C8D0E0D00022C00179B6
:10017000083392B331C8D2B431C8C2B431C8D9F14E
:10018000D2B331C8D2B431C8A2B3E433C2B431C897
:10019000C2B331C8D00122C0017908D2B331C8D26C
:1001A000B431C8A2B333C2B431C8D9F3C2B331C871
:1001B000D00122C2B38002D2B331C8D2B431C8C296
:1001C000B431C8C2B331C822C002AAC8DAFED00214
:1001D00022E675F00A84F608E654F045F0C475F09E
:1001E0000A84C4C6C454F045F0C475F00A8446F6C7
:1001F000E5F0182203010005811006120002017AC1
:10020000120612001400190006120014020005065E
:100210001200140400050114042000222E02210CF7
:060220000221047222001D
:00000001FF
