:10000000759840758780758920758DFF7588407556
:07001000A8907599558029A5
:10002300C29975995532C003C0047BC87CC8DCFEF5
:09003300DBFADAF6D004D0032256
:1000400011677A0511297590FFE43095077408301F
:100050009702800411A2800720B70411B880007AAB
:10006000051129C29380DBC002C2B57A031129D2DF
:10007000B57A031129C29090021711F6D290C2915D
:1000800090021D11F6D291C29290022411F69002B4
:100090002B11F690023211F690023B11F6D292D05B
:1000A0000222C29290024011FD6262311F90023919
:1000B00011F630E0F8D29222C000C0029002431143
:1000C000F678717A051201F4C0E0DAF97A05D0E029
:1000D0001200DADAF9D002D00022C0E0C002540FD8
:1000E000640F44E0F5907A0D11297590FF7A07119D
:1000F00029D002D0E0221200FD12011F22C000C050
:1001000002C003C0E07860E493F6540FFB7A000A63
:10011000EA9308F6DBF9D0E0D003D002D00022C089
:1001200002C005E560C4540FFD31397A011129314F
:100130005E30E7F7D005D00222C0037860E6540FA6
:10014000FBC2B331EBC2B431EB7422319008E6311B
:1001500090DBFAD2B431EBD2B331EBD00322C00042
:10016000C2B331EBC2B431EB7423319031BA30E712
:1001700010C0E07870ED600931D631BAF6081D8004
:10018000F431DAD2B431EBD2B331EBD0E0D000228B
:10019000C00179083392B331EBD2B431EBC2B43140
:1001A000EBD9F1D2B331EBD2B431EBA2B3E433C229
:1001B000B431EBC2B331EBD00122C0017908D2B324
:1001C00031EBD2B431EBA2B333C2B431EBD9F3C2C9
:1001D000B331EBD00122C2B38002D2B331EBD2B43F
:1001E00031EBC2B431EBC2B331EB22C002AAC8DAA0
:1001F000FED00222E675F00A84F608E654F045F0D7
:10020000C475F00A84C4C6C454F045F0C475F00A3D
:100210008446F6E5F018220301000581100612005D
:1002200002017A12061200140019000612001402CC
:100230000005061200140400050114042000222EFB
:0602400002210C722200F5
:00000001FF
